:020000040000FA
:060000000A128A110C280F
:10000800FE00030EF0000A08F1000A128A11C32844
:100018000A128A110F2883120313A001A101A20159
:10002800A30183010A128A116C28FB017B0872075D
:10003800F3007308840083130008831203138800F5
:100048000430F3007B0A2A280310F30DFF3E031D3A
:10005800282805080339730485000030FA000030A9
:10006800F9000130F8009030F7000130F30000305B
:10007800F4000030F5000030F6007308F702740849
:10008800031C740F48284928F8027508031C750FCB
:100098004E284F28F9027608031C760F5428552855
:1000A800FA02770A031D6228780A031D6228790A72
:1000B800031D62287A0A031D622863283928013043
:1000C800FB0704307B02031C6A286B281A280800E7
:1000D8000A128A11AE200A128A11063083120313FB
:1000E800A4005B30A5004F30A6006630A70024307E
:1000F800F2000A128A1119200A128A110130831299
:100108000313A0070318A10A0030A1070030210239
:10011800643003192002031C922893289D28A0010B
:10012800A101803086060130A2070318A30A003017
:10013800A307003023020A3003192202031CA52852
:10014800A6287B2805080339850063007B280A1246
:100158008A110C280A128A11DF200A128A110A123F
:100168008A11D3200A128A11831603138601831277
:10017800031386018316031306148B1708008B1CC0
:10018800C628C728CC2883120313A201A3018B1009
:1001980071088A00700E8300FE0E7E0E0900831619
:1001A8000313880105080339850083120313050822
:1001B8000339850008008316031301130B16080082
:02400E00FB3F76
:00000001FF
