:020000040000FA
:060000000A128A11FC2F18
:100E2C008316031388018312031388010F30831672
:100E3C000313860008000030F3000030F20000308D
:100E4C00F1000030F0000130F007003003180130E1
:100E5C00F107003003180130F2070030031801309D
:100E6C00F3077308031D492F7208031D492FC33064
:100E7C007102031D452F50307002031D452F031CBA
:100E8C00482F492F292F0800F601F7010A128A1161
:100E9C0016270A128A11831203130608F5000F3065
:100EAC00F5050E307506031D5C2F5D2F622F01308A
:100EBC00F6008801F701802F0D307506031D672F92
:100ECC00682F6B2F0230F6005F2F0B307506031D59
:100EDC00702F712F762F0330F60055308800802F3D
:100EEC0007307506031D7B2F7C2F802F0430F600F6
:100EFC000F3088007603031D842F852FBD2F0830FB
:100F0C00770203188A2F8B2F8F2F0314080D88005C
:100F1C00B52F103077020318942F952F9A2F0808AD
:100F2C00F40074078800B52F1830770203189F2F30
:100F3C00A02FA72F0808F4000310740C8038880029
:100F4C00B52F203077020318AC2FAD2FB32F080824
:100F5C00F4000310740C8800B52FF70188010130E0
:100F6C00F7070A128A1121270A128A11512F02300F
:100F7C007606031DC22FC32FD52F08307702031816
:100F8C00C82FC92FCA2F8B2F103077020318CF2FE1
:100F9C00D02FB32F0808F40074078800B52F033046
:100FAC007606031DDA2FDB2FE72F55300806031DBD
:100FBC00E02FE12FE42FAA308800B72F553088009E
:100FCC00B72F04307606031DEC2FED2F512F0F3069
:100FDC000806031DF22FF32FF62FF0308800B72FE1
:100FEC000F308800B72F0A128A11002883010A12C9
:040FFC008A114A2FDD
:02400E00FB3F76
:00000001FF
