:020000040000FA
:060000000A128A110C280F
:10000800FE00030EF5000A08F6000A128A113628C7
:100018000A128A110F280A128A1134210A128A1127
:10002800F0000A128A1135210A128A11F1000A1207
:100038008A1136210A128A11F2000A128A1137210E
:100048000A128A11F3000A128A1138210A128A1137
:10005800F400A001A101F901FA01FB0183010A12D0
:100068008A11CA280B1D39283A28992883120313A4
:100078000108083E81000A128A11EF200A128A112B
:10008800013083120313A0070318A10A0030A10747
:1000980071082102031D522870082002031C5528EC
:1000A80056289828A001A1017B03031D5C285D2820
:1000B8007A28003073026430031972020318652825
:1000C800662898280A30F2070318F30A0030F30765
:1000D80000307302653003197202031C74287528F6
:1000E80098286430F2000030F300982802307B062C
:1000F800031D7F288028982872087304031985280F
:1001080086289828003073020A30031972020318EF
:100118008E288F289228F201F30198280A30F202DB
:100128000030031CF303F3020B1176088A00750EE6
:100138008300FE0E7E0E0900F8007808031DA5282E
:10014800A628AB288312031306083F39C9283F3075
:10015800831203130605F7003F3077060319B52805
:10016800B628BD2874080319BA28BB28BD28F4018D
:10017800A6283F300605F7003F307706031DC5283F
:10018800C628C8280130F4003F3008000A128A1136
:1001980012210A128A1100300A128A11A0200A12AA
:1001A8008A1183120313A2003E302206031DDD28A4
:1001B800DE28E1280130FB00CF283D302206031D50
:1001C800E628E728EA280230FB00CF28FB01CF28E1
:1001D8000A128A110C2873087A02031DF52872087E
:1001E80079020318F828F928FD28831203138817C1
:1001F80000298312031388130130F9070318FA0A38
:100208000030FA0700307A02643003197902031CBF
:100218000E290F291129F901FA0108008312031385
:1002280088018316031388010A128A112E210A12E3
:100238008A110A128A1124210A128A118B170800BE
:10024800831603138112811506308312031381006C
:100258008B1608008316031306083F38860008002B
:0A026800103427343234003401341E
:02400E00FB3F76
:00000001FF
