:020000040000FA
:060000000A128A11FC2F18
:100EF6008316031388018312031388010800003048
:100F0600F3000030F2000030F1000030F000013054
:100F1600F007003003180130F107003003180130E4
:100F2600F207003003180130F3077308031DAA2FD8
:100F36007208031DAA2FC3307102031DA62F50305D
:100F46007002031DA62F031CA92FAA2F8A2F0800A3
:100F5600F5010A128A117B270A128A1108307502D6
:100F66000318B62FB72FBF2F031483120313080DD0
:100F760088000130F507F32F103075020318C42FCF
:100F8600C52FCE2F831203130808F40074078800B8
:100F96000130F507F32F183075020318D32FD42F1D
:100FA600DF2F831203130808F4000310740C803833
:100FB60088000130F507F32F203075020318E42F5F
:100FC600E52FEF2F831203130808F4000310740CA7
:100FD60088000130F507F32FF5018312031388010A
:100FE6000A128A1182270A128A11B12F0A128A114D
:0A0FF600002883010A128A11AB2FB4
:02400E00FB3F76
:00000001FF
