:020000040000FA
:060000000A128A11EE2F26
:10098200831603130608023886000A128A11CC2441
:100992000A128A1108008316031388010508C33955
:1009A2008500831203130508C339850008003F340C
:1009B20006345B344F3466346D347D3407347F340F
:1009C2006F3401343F343F343F343F347E088A0071
:1009D2007F0882000A128A11E7240A128A11800013
:1009E200840A04087D0603190034FF0A0319FE0A6B
:1009F200EB2CF0006400831603178C18012D022DD6
:100A0200FB2C7008831203178D003F3083160317E7
:100A12008C050C14831203170C080800F401F5016D
:100A2200701C142D152D1B2D7208F4070318F50ADE
:100A32007308F50701300310F20DF30DFF3E031D9D
:100A42001C2D01300310F10CF00CFF3E031D232D71
:100A520070087104031D2E2D2F2D112D7508F10024
:100A62007408F0000800F1007108031D392D3A2DB9
:100A72003F2D8312031306083F395D2D3F30831249
:100A820003130605F0003F3070060319492D4A2D65
:100A9200512D2A0803194E2D4F2D512DAA013A2D01
:100AA2003F300605F0003F307006031D592D5A2DC8
:100AB2005C2D0130AA003F300800FD0083160317A9
:100AC2008C18642D652D5F2D7D08831203178D0010
:100AD2007C088C003F30831603178C0583120313A6
:100AE20003108B1F752D762D772D03148B13831610
:100AF20003170C1555308D00AA308D008C140C1183
:100B020083120313031C862D872D882D8B17080053
:100B1200F40174087007F10071088400831300085F
:100B22008312031388000430F100740A9A2D031013
:100B3200F10DFF3E031D982D0508C3397104850090
:100B4200E830F2000330F3000130F2020030031CFF
:100B5200F303F302720A031DB22D730A031DB22DB1
:100B6200B32DA52D0130F40704307402031CBA2DF5
:100B7200BB2D8A2D0800770878040319C12DC22DD8
:100B8200EF2D0130FB00CE2D01300310F70DF80DD3
:100B9200FF3E031DC62D0130FB07F81FD12DD22DBC
:100BA200C52D78087A02031DD82D77087902031C17
:100BB200DB2DDC2DE22D7708F9027808031CFA03FD
:100BC200FA0201300310F80CF70CFF3E031DE32D6F
:100BD2000130FB02031DEE2DEF2DD22D7A08F80015
:100BE2007908F7000800F401F5017008710403198F
:100BF200FB2DFC2D312E0130F600082E01300310A2
:100C0200F00DF10DFF3E031D002E0130F607F11F1E
:100C12000B2E0C2EFF2D01300310F40DF50DFF3EAF
:100C2200031D0D2E71087302031D192E7008720226
:100C3200031C1C2E1D2E242E7008F2027108031CA8
:100C4200F303F302741401300310F10CF00CFF3EB5
:100C5200031D252E0130F602031D302E312E0C2EDF
:100C62007508F1007408F000080000300A128A11B9
:100C7200FA240A128A11F800F9017808FA007908B0
:100C8200FB0001300A128A11FA240A128A11F800B2
:100C9200F9017B08F1007A08F0000A30F200003016
:100CA200F3000A128A110F250A128A1178087007B6
:100CB200FA0079080318790A7107FB0002300A1258
:100CC2008A11FA240A128A11F800F9017B08F1004C
:100CD2007A08F0000A30F2000030F3000A128A119A
:100CE2000F250A128A1178087007FA00790803188A
:100CF200790A7107FB0003300A128A11FA240A12D8
:100D02008A11F800F9017B08F1007A08F0000A3034
:100D1200F2000030F3000A128A110F250A128A111A
:100D220078087007FA0079080318790A7107FB003E
:100D32007B08F7007A08F6000800E830F00003307C
:100D4200F100831203133008F3002F08F2000A1295
:100D52008A11F4250A128A117008FC0000300A1266
:100D62008A115E250A128A110A30F7000030F80053
:100D72006430F0000030F100831203133008F300F6
:100D82002F08F2000A128A11F4250A128A11710838
:100D9200FA007008F9000A128A11BC250A128A1197
:100DA2007708FC0001300A128A115E250A128A11A4
:100DB2000A30F7000030F8000A30F0000030F1008D
:100DC200831203133008F3002F08F2000A128A116B
:100DD200F4250A128A117108FA007008F9000A1241
:100DE2008A11BC250A128A117708FC0002300A1205
:100DF2008A115E250A128A110A30F7000030F800C3
:100E0200831203133008FA002F08F9000A128A111C
:100E1200BC250A128A117708FC0003300A128A11D3
:100E22005E250A128A1108000A128A11C1240A12C6
:100E32008A1183120313B101B2010A128A113626F2
:100E42000A128A110A128A1136260A128A117708A0
:100E520083120313B5007608B40027303502103030
:100E620003193402031C362F372F392FB401B50171
:100E720001300A128A1134250A128A1183120313CD
:100E8200B3000130B1070318B20A0030B2070030D4
:100E92003202643003193102031C502F512F642F88
:100EA200B101B2010130B4070318B50A0030B50729
:100EB20027303502103003193402031C612F622FD0
:100EC200642FB401B5013D303306031D692F6A2F2B
:100ED200732F3508B0003408AF000A128A119E261B
:100EE2000A128A11E830F0000330F1008312031372
:100EF2003508F3003408F2000A128A11F4250A12A6
:100F02008A117008203E84008313000883120313A1
:100F1200AB000A30F7000030F8006430F000003017
:100F2200F1003508F3003408F2000A128A11F425A0
:100F32000A128A117108FA007008F9000A128A115D
:100F4200BC250A128A117708203E84008313000808
:100F520083120313AC000A30F7000030F8000A30A5
:100F6200F0000030F1003508F3003408F2000A12F4
:100F72008A11F4250A128A117108FA007008F90020
:100F82000A128A11BC250A128A117708203E8400AF
:100F92008313000883120313AD000A30F7000030F8
:100FA200F8003508FA003408F9000A128A11BC2543
:100FB2000A128A117708203E8400831300088312E4
:100FC2000313AE002B30F0000A128A1189250A128F
:100FD2008A11392F0A128A11002883132F30FD003B
:100FE2000430FE00D830FF00203084000A128A113B
:0E0FF200EB240A128A1183010A128A11152FAC
:02400E00FB3F76
:00000001FF
