:020000040000FA
:060000000A128A11E62F2E
:100CA20001340A128A115D260A128A11831603136D
:100CB2000608073886000800831603138801050812
:100CC200C3398500831203130508C3398500080060
:100CD2003F3406345B344F3466346D347D3407342C
:100CE2007F346F34083408343F343F343F343F3468
:100CF2007E088A007F0882000A128A1179260A1267
:100D02008A118000840A04087D0603190034FF0A50
:100D12000319FE0A7D2EF40174087007F1007108B0
:100D22008400831300088312031388000430F10047
:100D3200740A9D2E0310F10DFF3E031D9B2E050824
:100D4200C33971048500E830F2000330F30001304A
:100D5200F2020030031CF303F302720A031DB52EE4
:100D6200730A031DB52EB62EA82E0130F4070430E7
:100D72007402031CBD2EBE2E8D2E0800F501F60155
:100D82002C30F0000A128A118C260A128A11831260
:100D920003130619CD2ECE2ED12EF9010130FB0000
:100DA2008618D42ED52ED92E0130F9000130FB0041
:100DB2000618DC2EDD2EF32E7B080319E12EE32E1E
:100DC2000130E42E0030FB00ED2E2C30F0000A1230
:100DD2008A118C260A128A1183120313061CF22E20
:100DE200F32EE62E0130F5070318F60A0030F60757
:100DF200013076022C3003197502031C012F022FD9
:100E0200C12E0800F501F31F072F082F0F2FF2093B
:100E1200F309F20A0319F30A0130F500F11F122F48
:100E2200132F182FF009F109F00A0319F10A7008BB
:100E3200710403191D2F1E2F4B2F0130F4002A2F8E
:100E420001300310F00DF10DFF3E031D222F013082
:100E5200F407F11F2D2F2E2F212F71087302031D6E
:100E6200342F70087202031C372F382F3E2F700860
:100E7200F2027108031CF303F30201300310F10CB8
:100E8200F00CFF3E031D3F2F0130F402031D4A2FD9
:100E92004B2F2E2F750803194F2F502F552FF20964
:100EA200F309F20A0319F30A7308F1007208F00059
:100EB20008000A128A1152260A128A110C30F00016
:100EC2000030F1007A08F700F8017708F20078089C
:100ED200F3000A128A1103270A128A117008203EAF
:100EE20084008313000883120313AC000C30F0005B
:100EF2000030F1007A08013EF200003003180130A0
:100F0200F3000A128A1103270A128A117008203E7E
:100F120084008313000883120313AD000C30F00029
:100F22000030F1007A08023EF2000030031801306E
:100F3200F3000A128A1103270A128A117008203E4E
:100F420084008313000883120313AE000C30F000F8
:100F52000030F1007A08033EF2000030031801303D
:100F6200F3000A128A1103270A128A117008203E1E
:100F720084008313000883120313AF000A128A113C
:100F8200BF260A128A117B080319C82FC92F5F2FA7
:100F92007908031DCD2FCE2FD82F0130FA070C3040
:100FA2007A02031CD52FD62F5F2FFA015F2F7A0802
:100FB200031DDC2FDD2FE02F0B30FA005F2F0130F5
:100FC200FA025F2F0A128A11002883133030FD00C3
:100FD2000630FE006930FF00203084000A128A11B8
:100FE2007D260A128A110A128A1151260A128A11C0
:0E0FF200FB00F901FA0183010A128A115A2F3D
:02400E00FB3F76
:00000001FF
