:020000040000FA
:060000000A128A11E82F2C
:100C220001340A128A111D260A128A11831603132D
:100C32000608013886000800831603138801050898
:100C4200C3398500831203130508C33985000800E0
:100C52003F3406345B344F3466346D347D340734AC
:100C62007F346F343F343F343F343F347E088A0050
:100C72007F0882000A128A1137260A128A1180001E
:100C8200840A04087D0603190034FF0A0319FE0AC8
:100C92003B2EF1007108031D4F2E502E552E83124C
:100CA200031306083F39732E3F30831203130605E0
:100CB200F0003F30700603195F2E602E672E7C080D
:100CC2000319642E652E672EFC01502E3F30060557
:100CD200F0003F307006031D6F2E702E722E013011
:100CE200FC003F300800F40174087007F10071083D
:100CF2008400831300088312031388000430F10078
:100D0200740A852E0310F10DFF3E031D832E050884
:100D1200C33971048500E830F2000330F30001307A
:100D2200F2020030031CF303F302720A031D9D2E2C
:100D3200730A031D9D2E9E2E902E0130F40704305F
:100D42007402031CA52EA62E752E080077087804BF
:100D52000319AC2EAD2EDA2E0130FB00B92E013074
:100D62000310F70DF80DFF3E031DB12E0130FB07F6
:100D7200F81FBC2EBD2EB02E78087A02031DC32E9A
:100D820077087902031CC62EC72ECD2E7708F902EA
:100D92007808031CFA03FA0201300310F80CF70C6E
:100DA200FF3E031DCE2E0130FB02031DD92EDA2E8B
:100DB200BD2E7A08F8007908F7000800F401F50161
:100DC200700871040319E62EE72E1C2F0130F6007D
:100DD200F32E01300310F00DF10DFF3E031DEB2E3B
:100DE2000130F607F11FF62EF72EEA2E013003101E
:100DF200F40DF50DFF3E031DF82E71087302031D5D
:100E0200042F70087202031C072F082F0F2F70087F
:100E1200F2027108031CF303F3027414013003108D
:100E2200F10CF00CFF3E031D102F0130F602031DE2
:100E32001B2F1C2FF72E7508F1007408F000080014
:100E42000A128A1112260A128A1183120313AF019F
:100E5200B001B101B20100300A128A114A260A1207
:100E62008A1183120313AE00E830F0000330F10060
:100E72003208F3003108F2000A128A11DF260A1240
:100E82008A117008203E8400831300088312031322
:100E9200AA000A30F7000030F8006430F000003099
:100EA200F1003208F3003108F2000A128A11DF263B
:100EB2000A128A117108FA007008F9000A128A11DE
:100EC200A7260A128A117708203E8400831300089D
:100ED20083120313AB000A30F7000030F8000A3027
:100EE200F0000030F1003208F3003108F2000A127B
:100EF2008A11DF260A128A117108FA007008F900B5
:100F02000A128A11A7260A128A117708203E840043
:100F12008313000883120313AC000A30F700003079
:100F2200F8003208FA003108F9000A128A11A726DD
:100F32000A128A117708203E840083130008831264
:100F42000313AD002A30F0000A128A1174260A1225
:100F52008A113E30831203132E06031DB12FB22FC6
:100F6200C22F0130AF070318B00A0030B0070030BB
:100F72003002C93003192F02031CC02FC12F2C2F9E
:100F82002A2F2F0830040319C72FC82FE22F003051
:100F92003002C83003192F020318D02FD12FE22FAD
:100FA2000130B1070318B20A0030B207273032020B
:100FB200103003193102031CDF2FE02FE22FB101A1
:100FC200B201AF01B0012C2F0A128A11002883133B
:100FD2002E30FD000630FE002930FF002030840054
:100FE2000A128A113B260A128A110A128A11112642
:0E0FF2000A128A11FC0083010A128A11212FB3
:02400E00FB3F76
:00000001FF
