:020000040000FA
:100000000A128A11EE2FFF1B0D2883137F18831706
:100010000008840A0319FF0A080000308A00040857
:10002000840A820700345234493447344834543403
:1000300020345334433452344F344C344C344934E8
:060040004E344734003489
:100D5E000A128A11B5260A128A1108008316031385
:100D6E008801091189100A128A1133270A128A1171
:100D7E00080048344134563445342034413420344C
:100D8E004E34493443344534203444344134593498
:100D9E00213400347E088A007F0882000A128A11EC
:100DAE00D1260A128A118000840A04087D060319CE
:100DBE000034FF0A0319FE0AD52EF3007018E82E30
:100DCE00EC2E831203130915EF2E83120313091150
:100DDE00730888008914A630F100F10BF42E000080
:100DEE008312031389101B30F2009E30F100F10BB9
:100DFE00FE2EF20BFE2E00000800F00176080A12FD
:100E0E008A11E4260A128A11222FF001F00A7508BF
:100E1E00FF00740884000A128A1103200A128A1134
:100E2E000A128A11E4260A128A110130F4070318F5
:100E3E00F50A0030F507750883120313FF007408D6
:100E4E0084000A128A1103200A128A11003A031D25
:100E5E00312F322F0C2F0800C330F500CD30F400A7
:100E6E00F40B372FF50B372FF00133300A128A119E
:100E7E00E4260A128A111B30F5009E30F400F40BA2
:100E8E00462FF50B462F0000F00133300A128A115F
:100E9E00E4260A128A11A630F400F40B542F000037
:100EAE00F00133300A128A11E4260A128A115F2FDA
:100EBE00602F0000F00138300A128A11E4260A125F
:100ECE008A11A630F400F40B6A2F0000F0010130F5
:100EDE000A128A11E4260A128A110430F5003D30F6
:100EEE00F400F40B782FF50B782F7D2FF0010C30DA
:100EFE000A128A11E4260A128A11A630F400F40BA3
:100F0E00862F00000800353084002030F7001130A5
:100F1E00F80083130008F900040AFA007708840029
:100F2E0079088000040AF7007A088400F80B902FE5
:100F3E0083120313B201B3010A128A11AF260A12E9
:100F4E008A110130F4008030F5008030F6000A126C
:100F5E008A1104270A128A112030F4000030F5009D
:100F6E00C030F6000A128A1104270A128A110130C3
:100F7E0083120313B2070318B30A0030B30700300D
:100F8E003302143003193202031CCE2FCF2FB32F8E
:100F9E00B201B3012008B100B4013408013E203E75
:100FAE00840083130008F7003408203E840077087D
:100FBE0080000130B4070F303402031CE72FE82FF6
:100FCE00D42F3108AF00B32F0A128A1100288313D1
:100FDE004630FD000630FE00C030FF003530840084
:100FEE000A128A11D5260A128A1183010A128A114F
:020FFE008A2F38
:02400E00FB3F76
:00000001FF
